:020000040800F2
:10000000B86701205D0200088B3200088F280008C5
:1000100089320008DB0A0008F93E000800000000F1
:100020000000000000000000000000009D0100082A
:100030001D0D000800000000F90100083133000820
:1000400077020008770200087702000877020008AC
:10005000770200087702000877020008770200089C
:10006000770200087702000877020008770200088C
:10007000550C000877020008610C000877020008A0
:10008000770200087702000877020008770200086C
:10009000770200087702000877020008770200085C
:1000A000770200087702000877020008770200084C
:1000B0007702000877020008093400087702000878
:1000C000770200087702000877020008770200082C
:1000D00077020008C53B000877020008D13B000802
:1000E000770200087702000877020008770200080C
:1000F00077020008770200087702000877020008FC
:1001000077020008770200087702000877020008EB
:10011000770200087702000815340008770200080B
:1001200077020008770200087702000877020008CB
:1001300077020008770200087702000877020008BB
:1001400077020008770200087702000877020008AB
:1001500077020008770200086D0C0008770200089B
:10016000770200087702000877020008770200088B
:1001700077020008770200087702000800000000FC
:100180007702000877020008DFF80CD000F098FB37
:1001900000480047C14D0208B86701202C4B196880
:1001A0000868B0E8F04F80F30988BFF36F8F4FF015
:1001B000000080F3118870470000000008480068C4
:1001C000006880F308884FF0000080F3148862B65E
:1001D00061B6BFF34F8FBFF36F8F00DF00BF00BF6B
:1001E00008ED00E0DFF80C00016841F470010160E7
:1001F000704700BF88ED00E0EFF30980BFF36F8F19
:10020000134B1A681EF0100F08BF20ED108A20E96A
:10021000F04F106009B44FF0500080F31188BFF325
:100220004F8FBFF36F8F2CF00BF94FF0000080F36E
:10023000118809BC19680868B0E8F04F1EF0100F6B
:1002400008BFB0EC108A80F30988BFF36F8F704746
:10025000D4020020EFF30580704700000648804775
:1002600006480047FEE7FEE7FEE7FEE7FEE7FEE79B
:10027000FEE7FEE7FEE7FEE7F93300088901000824
:100280002DE9F05F0546002092469B4688460646CB
:10029000814640241BE0284641464746224600F05E
:1002A0000EF953465A46C01A914110D311461846CA
:1002B000224600F0F5F82D1A67EB01084F4622465A
:1002C0000120002100F0ECF817EB00094E41201E40
:1002D000A4F10104DFDC484631462A464346BDE826
:1002E000F09F0000014610B509683C22B1FBF2F313
:1002F00002FB1313B1FBF2F11D480360B1FBF2F3F3
:1003000002FB1313B1FBF2F118224360B1FBF2F3CD
:1003100002FB1313B1FBF2F183600A1D0723B2FB4A
:10032000F3F403FB142282618A0040F2B55102F615
:100330006C32B2FBF1F344334361B2FBF1F301FBE6
:1003400013218908C1613B2903D3027D920700D0A4
:10035000491C0022074C13460261E25C8A4203D822
:10036000891A5B1C0361F8E7491CC16010BD0000DD
:100370008C57012014D3060810B5431A934209D2B2
:100380008318881803E010F8011D03F8011D521EA0
:10039000F9D210BD40EA01039B0703D009E008C968
:1003A000121F08C0042AFAD203E011F8013B00F83A
:1003B000013B521EF9D210BDD2B201E000F8012B70
:1003C000491EFBD270470022F6E710B513460A46D5
:1003D00004461946FFF7F0FF204610BD30B505462C
:1003E0002A460B4612F8010B13F8014B08B1A04244
:1003F000F8D01CB1002802D06D1CF1E7284630BDB2
:10040000421C10F8011B0029FBD1801A704710B55F
:10041000002200E0521C835C8C5CA34201D1002BC3
:10042000F8D1D8B2E1B2401A10BD034611F8012B41
:1004300000F8012B002AF9D11846704730B505465F
:100440000020034600E05B1C934205D2EC5CC85CD4
:10045000201A01D1002CF6D130BD70B5064604F04B
:10046000A9F8046805460A220021304600F037F852
:100470002C6070BD30B50B460146002020220124BF
:1004800009E021FA02F59D4205D303FA02F5491B62
:1004900004FA02F52844151EA2F10102F1DC30BD78
:1004A000202A04DB203A00FA02F100207047914034
:1004B000C2F1200320FA03F3194390407047202A29
:1004C00004DB203A21FA02F00021704721FA02F3FE
:1004D000D040C2F1200291400843194670472DE9EF
:1004E000F04791460F4680460446002614F8015B0B
:1004F0002DB100F009FA0068405DC007F6D12B2D40
:1005000002D02D2D18D0641E4A463946204600F0F0
:10051000FFF927B13968A14201D1C7F80080710500
:100520004FF002040BD54042002803DD04F042F8EE
:100530000460A007BDE8F08746F48066E4E7002881
:10054000F8DA04F037F804606FF00040F2E72DE9C4
:10055000FE4F804681EA0300C00F0C46009021F058
:10056000004123F00045B8EB0200A94105D2404606
:10057000214690461C460B46024623F0004010439D
:1005800047D0270DC7F30A00C3F30A510290401A5F
:10059000019040286BDAC3F3130040F4801B0098ED
:1005A000924620B10023D2EB030A63EB0B0B0198B8
:1005B0005946C0F140025046FFF772FF06460D460D
:1005C00050465946019A00F08DF910EB0800614140
:1005D000002487EA115284EAE7731A4340D0009A54
:1005E00062B3019A012A4FEA075215DC001B61EB46
:1005F00002014FF0004202EA0752CDE90042001C1E
:1006000041F5801132462B4600F0E0F903B0BDE819
:10061000F08F40462146F9E7001B61EB0201001C08
:1006200041F5801300185B412018A2F5001747EB35
:10063000030140EAD570B6196D4111E06D084FEA2B
:10064000360645EAC0754FEA0752001B61EB02010E
:10065000001C41F5801149084FEA30000019514152
:1006600032462B4603B0BDE8F04F00F0A0B9009829
:10067000012240000023D0EB020263EBE0730098FC
:1006800021464FEAE074B8EB000061EB0401E9E7B2
:1006900083F000435BE781F0004158E72DE9FE4F0E
:1006A00081EA030404F0004421F0004100944FF07B
:1006B000000B23F0004350EA01045ED052EA030429
:1006C0005BD0C3F30A54C1F30A552C44A4F2F334AB
:1006D0000194A0FB0254C1F3130141F48011C3F350
:1006E000130343F4801301FB024400FB034E840A0E
:1006F000970A44EA815447EA8357A4FB07680295A6
:100700008D0A05FB07854FEA932C04FB0C54270543
:10071000029D4FEA065847EA1637B5EB08056EEB1F
:10072000070C870E920E47EA811742EA8312A7FB55
:100730000201B6EB0B0164EB00042B0D43EA0C3312
:100740005E1844EB1C50DA465146E7FB0201C5F344
:1007500013044FEA0B3343EA14534FEA0432019C6B
:1007600043EA0603A4F10C040294009CCDE900B412
:1007700000F02CF903B0BDE8F08F00200146F9E746
:100780002DE9F04D81EA030404F0004B21F000450F
:1007900014464FF0000A23F0004150EA050220D031
:1007A00054EA01021DD0C5F30A570246C5F31303EC
:1007B000C1F31300C1F30A5640F4801543F48013CB
:1007C000A7EB0608101BD64608F2FD3873EB0500B0
:1007D00002D308F1010801E092185B41B8F1000F63
:1007E00003DA00200146BDE8F08D00204FF48011AF
:1007F000064684460EE0171B73EB050705D3121B54
:1008000063EB050306434CEA010C49084FEA30004C
:1008100092185B4150EA0107EDD152EA030012D071
:1008200082EA040083EA0501084305D0101BAB41AE
:1008300006D20122002306E000224FF0004302E02E
:100840006FF0010253101AEB06004CEB085110EB4D
:100850000A0041EB0B01BDE8F04D00F0A8B8C1F370
:100860000A52C1F3130140F2FF3341F480119A425E
:1008700002DA00200146704740F233439A42A2F266
:10088000334202DC5242FFF71ABEFFF709BE0000F6
:1008900030B5041E71F1000404DB4FF00044404207
:1008A00064EB0101141E73F1000405DB1C464FF0DC
:1008B0000043524263EB0403994208BF904230BDAB
:1008C000064C074D06E0E06840F0010394E807009D
:1008D00098471034AC42F6D3FFF75AFC8CD906087F
:1008E000ACD90608202A06DBCB17203A41FA02F0E1
:1008F00043EAE07306E041FA02F3D040C2F120027D
:10090000914008431946704700487047A4D3060831
:100910002DE9F05F82460078002715468B460AF1E4
:100920000104B946302801D09DB113E014F8010B41
:100930000127782803D0582801D045B10AE00DB12D
:10094000102D07D10027102514F8010B02E008250F
:1009500000E00A250026B0460EE005FB080005FB76
:1009600006F1012701EB10461FFA80F8B6F5803F2B
:1009700000D3B94614F8010B294600F075F8002899
:10098000EBDABBF1000F05D00FB1641E00E0544656
:10099000CBF80040B9F1000F06D003F00BFE0221A6
:1009A0000160C81EBDE8F09F48EA0640FAE710B5AE
:1009B000141E73F1000408DA401C41F10001921882
:1009C0005B411A4301D120F0010010BD2DE9F04D2B
:1009D00092469B4611B1B1FA81F202E0B0FA80F280
:1009E00020329046FFF75CFD04460F4640EA0A00BD
:1009F00041EA0B0153465A46084313D0114653EAC5
:100A0000010019D0C8F140025046FFF758FD0546D5
:100A10000E46504659464246FFF742FD084305D070
:100A2000012004E020463946BDE8F08D0020054352
:100A300046EAE0762C4337430A986305E40AA0EBC4
:100A400008000022FD0A44EA47540A3002D500207B
:100A50000146E9E7010510196941DDE9084500197A
:100A60006941BDE8F04DA2E73A2800D2303820F0C5
:100A70002002412A01D3A2F13700884201D34FF06E
:100A8000FF30704770B58C1810F8015B15F0070344
:100A900001D110F8013B2A1106D110F8012B03E017
:100AA00010F8016B01F8016B5B1EF9D12B0705D41F
:100AB0000023521E0DD401F8013BFAE710F8013B68
:100AC000CB1A921C03E013F8015B01F8015B521E84
:100AD000F9D5A142D8D3002070BDFEE72AF032BE7E
:100AE00000B585B014216846FFF76DFC0820009022
:100AF00000200190012002906946024800F0DEFAD1
:100B000005B000BD0008024000B585B0142168465C
:100B1000FFF759FC0820009001200190022003906B
:100B20006946024800F0CAFA05B000BD000802405C
:100B30002DE9F0410025144E2C460821304600F0E6
:100B4000B5FB0028F9D031201D21491E89B2FCD205
:100B5000401EF9D20821304600F0A8FB01280AD037
:100B6000002760066D1CEDB247EA1064082DE4D33F
:100B70002046BDE8F08101270821304600F096FBB1
:100B80000028F9D1EDE700000008024010B5FFF79A
:100B9000BBFF154C01220821204600F08CFB0022EF
:100BA0000821204600F087FB19202BF0EFFA2BF0EC
:100BB00015FA01220821204600F07DFBFFF790FF87
:100BC0000821204600F072FB0028F9D108212046B8
:100BD00000F06CFB0028F9D00821204600F066FBED
:100BE0000028F9D110BD000000080240184C88B060
:100BF0000025FFF7CBFFFFF773FF00BFFFF798FF5C
:100C000060556D1CEDB2052DF8D32BF007FA237853
:100C10006278A178E0789D180E1835442679B5429F
:100C200011D102258DF800508DF802308DF8041096
:100C30008DF803208DF805002CF040FC07900A2168
:100C4000684602F083FF40F6B83024F00CFECFE790
:100C50006E000020014800F0BFB80000580B0020D3
:100C6000014800F0B9B80000B80B0020014800F0BE
:100C7000B3B80000F80A002001681823CAB2103A7D
:100C8000B2FBF3F2054B6FF30901032A9B5CC365CA
:100C900000D9091D8165084670470000D0DA0208B6
:100CA00010B5014600208B698A6A4FF0C07453B1B9
:100CB000B3F5005F15D072B1012A0CD0022A0AD018
:100CC000032A09D104E01AB1012A06D0022A03D16D
:100CD000C96AC90100D5012010BDC96AA142FAD074
:100CE00010BD002AF7D0012AF2D0022AF3D0032A3D
:100CF000F3D010BD30B50468256825F48025256043
:100D0000046863608368402B036803D099600068BF
:100D1000C26030BD9A600068C16030BD704772B675
:100D2000FEE72DE9F0410446876D00F0C9FA06465A
:100D300094F835000025022806D08020606584F8EC
:100D400034500120BDE8F0812068016821F01601CF
:100D500001602068416921F080014161206C08B97F
:100D6000A06C20B12068016821F0080101602068B2
:100D7000016821F0010101600CE000F0A1FA801B84
:100D8000052807D920206065032084F8350084F801
:100D90003450D7E720680068C007EED194F85C10A3
:100DA0003F208840B860012084F8350084F8345032
:100DB0000020C7E790F83510022903D08021416553
:100DC00001207047052180F835100068016821F086
:100DD00001010160002070472DE9F84304464FF0FF
:100DE0000009CDF8009063484FF41651A56D0068D6
:100DF000B0FBF1F72E6894F85C10082000FA01F1BE
:100E000031420FD021680A6852070BD50A6822F0D8
:100E100004020A6094F85C108840A860606D40F09D
:100E20000100606594F85C104FF0010808FA01F0C9
:100E3000304208D021684969090604D5A860606D70
:100E400040F00200606594F85C1004208840304255
:100E500008D021680968890704D5A860606D40F052
:100E60000400606594F85C1010208840304218D06F
:100E700021680968090714D5A8602068016849033A
:100E800004D50068000308D5A16C07E00168C90516
:100E900003D4016821F008010160216C09B12046EA
:100EA000884794F85C1020208840304231D0216877
:100EB0000968C9062DD5A86094F835000528206872
:100EC000016806D0490347D5006800031DD4616C52
:100ED0001CE021F0160101602068416921F08001C9
:100EE0004161206C08B9A06C20B12068016821F034
:100EF0000801016094F85C103F208840A86084F8E5
:100F0000358084F83490216D1FE0E16B09B12046F3
:100F10008847606D00282BD0606DC00714D0052075
:100F200084F835002068016821F001010160009813
:100F3000401C0090B84203D820680068C007F6D172
:100F400084F8358084F83490E16C002910D001B029
:100F50002046BDE8F04308470168C905D5D40168BB
:100F600021F01001016084F8358084F83490CCE7DA
:100F7000BDE8F883340000202DE9F041044600F07C
:100F80009FF906465CB1022084F83500002584F8FC
:100F900034502068016821F0010101600DE001205A
:100FA000BDE8F08100F08CF9801B052805D92020D0
:100FB0006065032084F83500F2E720680068C00708
:100FC000F0D12268116820480140D4E90103184398
:100FD000D4E903363343184363691843A3691843BC
:100FE000E3691843236A18430843616A042903D15B
:100FF000D4E90B1319430843106020684069666AFE
:1010000020F0070130460E43012704280CD1A06AC6
:101010000643E06A40B12046FFF742FE20B140207F
:10102000606584F83570BAE7206846612046FFF7AE
:1010300023FE94F85C203F2191408160656584F82F
:1010400035700020ACE700003F8010F02DE9F04142
:101050000446866D90F83400002501280DD001204B
:1010600084F8340094F835700020012F07D084F8FC
:10107000340002252846BDE8F0810220FBE7022764
:1010800084F8357060652046FFF734FE94F85C10F4
:101090003F208840B0602068016841F0160101607F
:1010A000206C20B12068016841F0080101602068CF
:1010B000016841F001010160DCE700002DE9F84F13
:1010C000DFF8BCA10022012503264FF00F090AF129
:1010D000040BAAF1040E00BF0B6805FA02F42340CA
:1010E000A34270D10F7907F00307012F01D0022F1F
:1010F00016D187684FEA420806FA08FC27EA0C076F
:10110000D1F80CC00CFA08FC4CEA070CC0F808C077
:101110004768A7430C79C4F3001494403C434460EF
:101120000C79E443A4070AD0C4684FEA420C06FADB
:101130000CF7BC438F6807FA0CF72743C7600C799C
:1011400004F00304022C12D1D40800EB840CDCF868
:1011500020405707FF0E09FA07F824EA0804D1F8DF
:10116000108008FA07F848EA0408CCF820800468E0
:101170004FEA420C06FA0CF7BC430F7907F003075D
:1011800007FA0CF7274307604C6814F4403F70D00F
:101190003C4C276847F480472760246822F0030707
:1011A00004F480440094384C07EB040CDCF8084845
:1011B00097074FEA177809FA08F7BC43334FB8424C
:1011C00002D1002724E054E0314FB84201D1012779
:1011D0001EE0304FB84201D1022719E02E4FB8422D
:1011E00001D1032714E02D4FB84201D104270FE0AD
:1011F0002B4FB84201D105270AE02A4FB84201D14E
:10120000062705E0284FB84201D1072700E008274C
:1012100007FA08F72743CCF80878DAF80040574671
:10122000D1F804C09C435FEACC2C00D51C433C6041
:10123000DBF800405F46D1F804C09C435FEA8C2C89
:1012400000D51C433C60DEF800407746D1F804C06E
:101250009C435FEA8C3C00D51C433C60084F083F30
:101260003C68D1F804C09C435FEACC3C00D51C43E9
:101270003C60521C102AFFF42FAFBDE8F88F00002D
:10128000083C014044380240003001400000024068
:101290000004024000080240000C0240001002401E
:1012A0000014024000180240001C0240006908407F
:1012B00000D0012070470AB1816170470904FBE743
:1012C00001488068704700002800002002488168BB
:1012D0000278114481607047280000200B4810B547
:1012E000016841F400710160016841F480610160AE
:1012F000016841F480710160032000F09FF80F2025
:1013000000F006F800F050F8002010BD003C02404C
:1013100030B505461F4887B00024016841F0100130
:101320000160006806A900F01000009001A800F01C
:10133000CFF90498A8B100F0EBF940001649174A1C
:10134000B0FBF1F11648491E026040F2E732C0E9F5
:101350000324C0E90114846100F0AAFD040003D055
:1013600015E000F0D5F9E9E70D4800F0EDFD0400C7
:101370000DD1362000F034F8102D07D20022294676
:10138000362000F03BF80748056000E0012407B074
:10139000204630BD4038024040420F00001000405F
:1013A000180C00202C0000200C4882B0016841F489
:1013B00080410160006800F4804000900748001FF1
:1013C000016841F0805101600068002200F0805007
:1013D00000900F21901E02B000F010B84438024077
:1013E000002809DB00F01F02012191404009800024
:1013F00000F1E020C0F8001170470000F0B40E4B7F
:101400001B680C46C3F30223C3F10705042D00D962
:101410000425191D072901D2002300E0DB1E012647
:1014200006FA05F1491E214099409E40761E16405D
:101430003143F0BC03F0AEB80CED00E0064900F01B
:10144000070208684FF6FF03184040EA0220034AEB
:1014500010430860704700000CED00E00000FA0542
:101460002DE9F843054600684FF00109C1074FF028
:10147000000601D1400727D5DFF80C81C8F8686065
:10148000FFF71EFF0746414C05E000BFFFF718FFBE
:10149000C01B022857D820680001F7D46868810172
:1014A000287A41EA0070394984310860C8F86890A8
:1014B000FFF706FF074604E0FFF702FFC01B022804
:1014C00041D820680001F7D52878800752D52F48E9
:1014D0004030016841F08051016000682C4C00F000
:1014E00080500090206840F480702060FFF7E8FE94
:1014F000074604E0FFF7E4FEC01B022823D820685B
:10150000C005F7D5214C7034206810F4407020D00D
:10151000A98901F4407181421BD020681D4920F443
:101520004070C1F800900E6020602068C00710D0A5
:10153000FFF7C6FE064641F2883707E0FFF7C0FE18
:10154000801BB84202D90320BDE8F88320688007D9
:10155000F4D5E9680D48C1F301220830032A0BD005
:10156000016821F4F81101602068A989C1F30B0119
:10157000084320600020E7E70268074B22F4F812D6
:1015800019400A430260EFE700004742003802407A
:1015900000700040400E4742FFFCFF0F2DE9F0476E
:1015A0000E46050065D0DFF81481D8F80000F7B2C8
:1015B00000F00700B04207D288F80070D8F80000A9
:1015C00000F00700B04254D128683D4C810712D585
:1015D000400703D5206840F4E050206028780007D9
:1015E00003D5206840F4604020602068A96820F09E
:1015F000F000084320602878C0072DD03049686883
:101600000839012812D0022813D0032811D0096804
:10161000890700292DDA216821F0030101432160A7
:10162000FFF74EFE814641F2883A0EE009688903D1
:10163000EFE709688901ECE7FFF742FEA0EB09013B
:10164000514502D90320BDE8F0872068696800F0A1
:101650000C00B0EB810FEFD1D8F80010404601F03C
:101660000701B14207D90770006800F00700B042D7
:1016700001D00120E7E72878400705D52068E96810
:1016800020F4E050084320602878000706D5206841
:10169000296920F4604040EAC100206000F058F859
:1016A0002168084AC1F30311515CC840064908602B
:1016B00006480068FFF72CFE0020C4E7003C02400B
:1016C00008380240D8DA0208340000202C0000203C
:1016D0000F2202600C4A136803F00303436013688F
:1016E00003F0F0038360136803F4E053C3601268EF
:1016F0004FF4E05303EAD20202610448006800F0AC
:10170000070008607047000008380240003C0240B3
:101710000448054900680968044AC1F38221515C04
:10172000C84070473400002008380240E8DA020858
:101730000448054900680968044AC1F34231515C14
:10174000C84070473400002008380240E8DA020838
:10175000154810B5006810F00C02144813D0144955
:10176000042A0FD0082A0ED10F4C241F22682368A8
:1017700002F03F025B0207D52068C0F38810A0FB8F
:10178000010106E0084610BD2168C1F38811A1FBE4
:1017900000010023FEF774FD2168C1F30141491CDB
:1017A0004900B0FBF1F010BD083802400024F400FD
:1017B00040787D012DE9F84F04006ED02078DFF8E5
:1017C0004C93C007A9F104054AD009F1040001684F
:1017D000C1F38101012908D00068C0F3810002280B
:1017E0000AD1D9F80000400206D52868800337D511
:1017F00060680028E1D033E06068B0F5803F10D029
:10180000B0F5A02F286810D020F480302860286818
:1018100020F4802028606068A8B1FFF751FD0646DB
:101820000DE0286840F48030F4E740F48020286020
:10183000F7E700BFFFF744FD801B642873D82868D2
:101840008003F7D50CE0FFF73BFD064605E000BF3F
:10185000FFF736FD801B6428F0D828688003F7D492
:101860002078DFF8AC8280074FF0000A3ED5A74809
:10187000001D016811F00C0F08D00068C0F3810052
:1018800002280BD1D9F80000400207D4286880074D
:1018900016D5E068012800D112E033E1E068B8B164
:1018A0000120C8F80000FFF70BFD064605E000BF69
:1018B000FFF706FD801B0228C0D828688007F7D5EF
:1018C0002868216920F0F80040EAC10028600DE096
:1018D000C8F800A0FFF7F4FC064604E0FFF7F0FCB0
:1018E000801B02281FD828688007F7D420780007BB
:1018F00022D5864F87486169703771B10121016037
:10190000FFF7DEFC064604E0FFF7DAFC801B022846
:1019100009D838688007F7D50EE0C0F800A0FFF7B7
:10192000CFFC064605E082E0FFF7CAFC801B0228D8
:101930007DD838688007F7D42078400768D5DFF86D
:10194000CCB100270BF13C0BDBF80000C0000BD43E
:10195000DBF8001041F08051CBF80010DBF80000FC
:10196000012700F0805000906B4E3068C00510D405
:10197000306840F480703060FFF7A2FC009005E012
:10198000FFF79EFC0099401A022850D83068C00525
:10199000F6D55E4EA0686C3601280FD00528306859
:1019A00010D020F001003060306820F0040030607A
:1019B000A068B8B1FFF784FC00900FE0306840F0F9
:1019C0000100F4E740F004003060F7E7FFF778FC2F
:1019D0000099411A41F28830814266D83068800708
:1019E000F4D50EE0FFF76CFC009007E0FFF768FC11
:1019F0000099411A41F28830814256D830688007F8
:101A0000F4D42FB1DBF8001021F08051CBF8001096
:101A1000A069C8B33D49091D0968C1F381010229C4
:101A20004AD00228504607D0C8F8600000E03CE0E9
:101A3000FFF746FC04463BE04746C8F86000FFF766
:101A40003FFC064605E000BFFFF73AFC801B02287A
:101A50002BD828688001F7D4D4E907010843A16A8C
:101A60002E4A490802EB0141626A41EA82110843A9
:101A700094F82C1040EA0161C9F800100120386682
:101A8000FFF71EFC044606E03EE000BFFFF718FC2F
:101A9000001B022809D828688001F7D534E000BF70
:101AA000FFF70EFC001B022802D90320BDE8F88FC7
:101AB00028688001F4D427E00128F7D0D9F8000085
:101AC000E26900F4800191421CD1226A00F03F01DA
:101AD000914217D147F6C071626A0140B1EB821F93
:101AE00010D1A26A4FF0FF3300F4403103EB5202F1
:101AF000B1EB024F06D194F82C1000F07060B0EBFF
:101B0000016F01D00120D1E70020CFE70438024067
:101B100000004742800E4742007000400000FFFF77
:101B200010B500680B4641680D480140080CD8709C
:101B3000C1F304245C7001F03F049C70C1F3423196
:101B4000197052B901F0A2FBD870587801F09EFBD1
:101B50005870987801F09AFB9870002010BD000032
:101B60003FFFFF0010B50B460168896A59600168A4
:101B70000969C1F30E019960006801680D480140D0
:101B8000C1F305401870C1F306245C7001F07F04B6
:101B90009C70890DD97052B901F078FB1870587893
:101BA00001F074FB5870987801F070FB9870002079
:101BB00010BD00007F7F7F0010B5040002D0607F61
:101BC00010B106E0012010BD00202077204600F073
:101BD00041F8022060772068C168C943C90632D540
:101BE000CA214162216853204862204601F062FB0D
:101BF00020BB20688168164A11408160216888688E
:101C000062681043D4E904231A43104388602168B2
:101C1000E068086120680169228941EA02410161A6
:101C2000204601F06BFB48B921680A6C22F480223F
:101C30000A6421680A6CA3691A430A642268FF21B6
:101C4000516208B110BD00200121617710BD000074
:101C5000BFFF8FFF1FB500210091019102910391F9
:101C60000068084988420CD10220009000020390CD
:101C70006846FFF7F5FB08B1FFF751F8024901206C
:101C800008601FBD002800403C0E474270B5044666
:101C9000007F0B46012819D00126267702206077A5
:101CA000B2B19878D97840EA01455878197800029D
:101CB00040EA413005432168CA2048622168532028
:101CC0004862204601F0F6FAD0B122E0022070BD51
:101CD0005878C10603D500F0EF000A305870D87864
:101CE00001F0DDFA0204587801F0D9FA42EA002244
:101CF000987801F0D4FA0243187842EA4035DAE7DE
:101D00000748054020684560204601F0F7FA00B911
:101D100066772268FF2151620021217770BD0000A3
:101D20003FFFFF002DE9F0410446007F0D460128EA
:101D300023D04FF0010884F81C80022060772068CF
:101D4000002780684FEA4060D2B1002800DBEF70C6
:101D5000A878297840EA01466878E978000240EAE4
:101D6000815006432168CA20486221685320486296
:101D7000204601F09FFAB8B12CE00220BDE8F081C6
:101D8000002800DBEF70287801F089FA02046878F7
:101D900001F085FA42EA0022A87801F080FA0243B5
:101DA000E87842EA8056DDE70D4806402068066084
:101DB0002068816821F480218160D5E9030108430E
:101DC00021688A6810438860204601F097FA08B9B4
:101DD00084F81D802268FF2151622777CEE700003A
:101DE0007F7F7F0070B504460B482168C860FFF70D
:101DF00067FA05464FF47A7607E000BFFFF760FA0E
:101E0000401BB04201D9032070BD2068C068800625
:101E1000F4D5002070BD00005F7F0100704770475F
:101E200070B590F83C20012A32D0012480F83C4063
:101E3000022280F83D2003685A689D6822F07006EF
:101E40000A6832435A60134B02689A4214D0B2F1C6
:101E5000804F11D0104B9A420ED0104B9A420BD0AB
:101E60000F4B9A4208D00F4B9A4205D00E4B9A4224
:101E700002D00E4B9A4204D1496825F080031943E1
:101E8000916080F83D40002180F83C10084670BD0C
:101E9000022070BD00000140000400400008004026
:101EA000000C0040000401400040014000180040C8
:101EB00010B5040003D094F83D0010B107E00120F4
:101EC00010BD002084F83C00204600F01FF80220DE
:101ED00084F83D00211D206801F0A2FA012084F859
:101EE000460084F83E0084F83F0084F8400084F8FF
:101EF000410084F8420084F8430084F8440084F8E8
:101F0000450084F83D00002010BD000008B50068C1
:101F10000B49884212D10B48016841F0040101606D
:101F20000068002200F00400009005211E20FFF749
:101F300065FABDE808401E20FFF752BA08BD000050
:101F4000000800404038024090F83D10012901D0BF
:101F500001207047022180F83D100168CA6842F0F4
:101F60000102CA6000681149884214D0B0F1804F64
:101F700011D00F4988420ED00E4988420BD00E492D
:101F8000884208D00D49884205D00D49884202D0C8
:101F90000C49884204D1816801F00701062903D069
:101FA000016841F00101016000207047000001401C
:101FB0000004004000080040000C00400004014004
:101FC000004001400018004070B5044690F83C0005
:101FD0000025012817D0012684F83C60022084F8EF
:101FE0003D002068826822F0770222F47F428260FE
:101FF0000868502838D00DDC20284FD005DC90B37D
:10200000102811D14AE0022070BD302846D0402867
:102010000AD13BE060282FD070280DD0B0F5805F4A
:1020200003D0B0F5005F12D0012584F83D60002098
:1020300084F83C00284670BDCB68D1E901212068B6
:1020400001F05AFA2068816841F0770109E0CB6815
:10205000D1E90121206801F04FFA2068816841F43C
:1020600080418160E1E719E0CA684968206801F0B1
:1020700055FA5021206806E0CA684968206801F0D6
:102080005EFA6021206801F041FACEE7CA6849682B
:10209000206801F043FA40212068F4E722680146F5
:1020A0001046F0E770472DE9F04104460068C66825
:1020B00005694FF00007A90713D5B10711D5F91E1F
:1020C000016101202077206880698007204602D0C6
:1020D000FFF7E8FF04E000F07EF8204600F07CF80F
:1020E0002777680716D5700714D521686FF00400AC
:1020F0000861022020772068806910F4407F204624
:1021000002D0FFF7CFFF04E000F065F8204600F0B2
:1021100063F82777280715D5300713D521686FF0A6
:1021200008000861042020772068C06980072046E5
:1021300002D0FFF7B7FF04E000F04DF8204600F0B2
:102140004BF82777E80616D5F00614D521686FF00E
:1021500010000861082020772068C06910F4407FD3
:10216000204602D0FFF79EFF04E000F034F820463E
:1021700000F032F82777E80708D0F00706D021688A
:102180006FF001000861204600F028F8280608D505
:10219000300606D521686FF0800008612046FFF701
:1021A0003DFE680608D5700606D521686FF0400030
:1021B0000861204600F028F8A8060AD5B00608D520
:1021C00021686FF0200008612046BDE8F041FFF76C
:1021D00026BEBDE8F08170477047000010B5044688
:1021E00000680749884201D1FFF770F80549206867
:1021F000884204D1BDE81040012022F0C5B810BDCE
:102200000010004000080040704738B5044690F8C0
:102210004200202801D0022038BD61B15AB101200E
:10222000206300206063204601F048FC0028F3D1C1
:10223000216B012901D0012038BD21680A68496855
:10224000009121680C3151E8002F42F0100241E862
:102250000023002BF5D138BD2DE9F843234F0D465F
:102260000646B8423FD1224C4FF00008CDF800801E
:1022700022892048811820469542406906D9A5EB5D
:1022800002021204120C11D06B460DE00ED2C2F500
:1022900000721204120C02D06B462AF01DFF2DB101
:1022A0006B462A46134960692AF016FF258196F885
:1022B000420020280CD102010E490C48FFF7A5FF6F
:1022C000F86B0068016821F008010160A4F808803B
:1022D0000098002807D008494FF080500860BFF3ED
:1022E0004F8FBFF36F8FBDE8F8830000B00A002066
:1022F00038000020600D002004ED00E010B5094C0E
:10230000A0420ED14FF4007207492046FFF77DFF2F
:10231000E06B0068016821F00801016003490020BA
:10232000088110BDB00A0020600D00203800002098
:10233000F8B5016804460868CA684B6910F00F0FC9
:102340004FF0000559D003F0010602F490773743AF
:1023500065D0C10705D0D10503D5616C41F00101FD
:102360006164410705D5D90703D0616C41F00201D2
:102370006164810705D5D90703D0616C41F0040180
:102380006164010707D502F02001314303D0616C7D
:1023900041F008016164616C00293AD0800604D5DF
:1023A000900602D5204601F0A1FA20684069616CD0
:1023B000C0F38010090700D460B3204601F061FA31
:1023C00020684069400621D52068143050E8001F7D
:1023D00021F0400140E80012002AF5D1E06BA8B1DD
:1023E0006E490165E06BFEF7E5FC002811D0E06B5B
:1023F000016D01B0BDE8F040084783060FD5930694
:102400000DD52046BDE8F84001F070BA2046FFF730
:1024100075FFF8BD2046FFF771FF6564F8BD266BB8
:102420002023012E7DD1C6067BD5D60679D5086836
:102430004868009048694FF00206400641D5E16BBC
:10244000086840680004000CE8D0A28D8242E5D9FB
:10245000E085C869B0F5807F2DD020680C3050E849
:10246000001F21F4807140E80012002AF5D1206895
:10247000143050E8001F21F0010140E80012002A4A
:10248000F5D12068143050E8001F21F0400140E8E9
:102490000012002AF5D184F84230256320680C3000
:1024A00050E8001F21F0100140E80012002AF5D189
:1024B000E06BFEF736FC6663A08DE18D401A81B2B9
:1024C0002AE0A08DE18D401A81B2E08D0028A5D0D0
:1024D0000029A3D022680C3252E8000F20F490703B
:1024E00042E80007002FF5D12068143050E8002F93
:1024F00022F0010240E80027002FF5D184F8423095
:10250000256320680C3050E8002F22F0100240E8CC
:102510000023002BF5D166632046FFF79DFEF8BD32
:10252000FFE705062BD5150629D594F8410021288B
:10253000F5D1A068B0F5805F01D12069B0B1206A03
:10254000411C2162216800784860E08C401E000434
:10255000000CE084E3D12068C16821F08001C160F3
:102560002068C16841F04001C160D8E7206A008856
:10257000C0F308004860206A801C2062E5E740063E
:10258000CDD55006CBD5CA68204622F04002CA609D
:1025900084F8413000F036F9C1E70000393700080F
:1025A00070B5040004D094F84100002510B106E095
:1025B000012070BD84F84050204600F023F824200C
:1025C00084F841002068C16821F40051C1602046B0
:1025D00001F0EEF92068016921F490410161206861
:1025E000416921F02A0141612068C16841F400512C
:1025F000C1606564202084F8410084F8420065636E
:10260000002070BD2DE9F04786B0064614216846CB
:10261000FDF7D9FEDFF850810221D6F800C05348FB
:1026200001220323072500248F064FF0400A4FF4B0
:102630008069C4453AD1DFF834C10CF1140CDCF8E0
:10264000008048F01008CCF80080DCF800C00CF0E6
:10265000100CCDF814C0D0F800C04CF0010CC0F83C
:1026600000C0006800F00100059058028DE82F00BE
:1026700069463F48FEF722FD3F4D3E48C5E9034904
:102680006C61AC61EC612C626C6285E88104284667
:10269000FEF772FC08B1FEF742FBB563002205218C
:1026A0002520AE63FEF7AAFE252057E0DFF8CC8098
:1026B000C44555D1DFF8B4C00CF1100CDCF8008033
:1026C00048F48028CCF80080DCF800C00CF4802CA2
:1026D000CDF814C0D0F800C04CF0020CC0F800C017
:1026E000006800F0020005904FF440608DE82F0074
:1026F00069462348FEF7E2FC1F4D22486035C84674
:102700002860C5E90174C5E9034980156C61C5E914
:1027100006402C6228466C62FEF72EFC08B1FEF7DC
:10272000FEFAF563AE63144D1648C0353030C5E986
:1027300003486C61AC61EC612C626C6285E88104D9
:102740002846FEF719FC08B1FEF7E9FAB563002246
:1027500005212720AE63FEF751FE2720FEF740FE3D
:1027600006B0BDE8F087000000100140303802409C
:1027700000000240B8640240F80A0020004800400F
:1027800000040240286002407047704770B504465C
:1027900090F84100202801D0022070BD49B342B317
:1027A0002162A284E28400206064212384F8413005
:1027B000A56B114BEB63A56B104B2B64A56B104BFA
:1027C000EB64A36B1865256813462A1DA06BFEF702
:1027D0003DFC21686FF0400008602068143050E82C
:1027E000001F41F0800140E80012002AF5D10020CE
:1027F00070BD012070BD000037380008793800082E
:102800004937000808B500221A4B1B49009298422C
:1028100010D14888CB881844C0B248800A70174845
:10282000694600682AF011FA01F044FAB0B101F0EB
:1028300059FA13E0124B98421BD188890B8A18442D
:10284000C0F3080088814A700E48694600682AF083
:10285000FCF901F0F7FA08B101F00CFB0098002830
:1028600007D009494FF080500860BFF34F8FBFF386
:102870006F8F08BD680A002038000020200000206B
:10288000B00A00202400002004ED00E07047FEE7BD
:10289000F0B516460D4604004FF0FF3722D0002D4C
:1028A00020DBFEB100F027F8A8421BDD2168087884
:1028B000022806D0D4E901231431521C5B1E0120EA
:1028C0000EE0D4E90123FAE700EB800401EB840475
:1028D000D4F810C0944502D1002D05DD6D1E401CBA
:1028E0008342F1DA3846F0BD1118181A3460C6E98F
:1028F00001100020F0BD4FF0FF3398B101680A7855
:10290000022A11D0032A0DD1CA68012A0AD182688D
:10291000002A07DD11F8142F022A03D10A69406842
:10292000824201D018467047C86870472DE9FF4FB2
:1029300081B01E465FEA000B4FF0FF3A50D0E1B382
:102940000398D0B3CEB308680278012A02D0032AD4
:1029500046D103E0D1E90184814611E0C268012A31
:102960003ED18C68002C3BDD10F8142F012A37D1A2
:10297000026949688A4233D1814601F10108641E27
:10298000002C2DDD012729E007EB870109EB8105EC
:102990002878032821D1296941451ED10399009146
:1029A000D5E90112521A01EB0B000099FDF746FD23
:1029B00098B90098FDF724FD00E011E0D5E9012168
:1029C000891A884209D108EB0700C6E90050E01BCC
:1029D000B060002005B0BDE8F08F7F1CBC42D3DAA8
:1029E0005046F7E72DE9F0410C4606461D461746CE
:1029F00019461046FDF7E7FC4FF0FF324EB144B1E7
:102A00003FB1002D05DD20680178032904D0042999
:102A100002D01046BDE8F081816840680C1AAC42D3
:102A200000DB6C1E811922463846FDF7A5FC2046C6
:102A3000F0E7FEB54FF0FF3568B161B15AB1002B38
:102A400009DD0C682678032E05D1E668012E02D137
:102A50008E68002E01DC2846FEBD143400944C68BC
:102A6000641C01948968491E02916946FFF7BAFF08
:102A7000FEBDC0E90012991A491E8160704700002E
:102A8000F0B50F4D059E18E00D4C2A27A41E278097
:102A9000070A2F8028802B2727800F0A2F80298064
:102AA0002C272780044604E036F8027B2F80641C24
:102AB000A4B29442F8D9491C89B29942E4D9F0BD34
:102AC0000000026030B5094C2A232380050AA31CAC
:102AD0001D80C0B218802B202080080A1880C8B240
:102AE00018802C2020801A8030BD0000FEFF01607D
:102AF0002DE9F05F8346A2EB0B00DFF840A0401CFD
:102B00001E460C4685B24FF02C090AF102080A9FB6
:102B10000FE02146584625F01FF9AAF80090002042
:102B2000414602E00F80401C80B2A842FAD3641CE8
:102B3000A4B2B442EDD9BDE8F09F0000FEFF0160F1
:102B40002DE9F04387B0142101A8FDF73CFCAF4FFD
:102B50000020F871AE480068AD4940F01F000860E1
:102B60004FF400480120CDE9018003900320DFF8F5
:102B7000A492049001A94846FEF7A0FA4CF6B3705F
:102B800001900220029001200390032004900C2069
:102B9000059001A9A048FEF791FA4FF680700190C8
:102BA0000220029001200390032004900C20059045
:102BB00001A99A48FEF782FA95480830006840F06B
:102BC00001019348083001604FF020450020286043
:102BD0006860C5F80401286840F4805028602868BF
:102BE00040F480402860286840F010002860686841
:102BF0006860686840F00F006860686840F4705072
:102C00006860D5F80401C5F80401D5F8040140F066
:102C10000900C5F80401D5F8040140F40060C5F8C6
:102C20000401286840F001002860322005F0E0FE31
:102C30007B4E00203080B41C2080322005F0D8FE6E
:102C4000002023F023FED320308020882088208895
:102C5000B88038794FF6FF7101EA002021880843D7
:102C6000B880D5F8040120F00F00C5F80401D5F8AC
:102C7000040140F40070C5F80401D5F8040120F403
:102C80007060C5F80401D5F8040140F00300C5F8F0
:102C90000401CF20308000202080C12222803020FB
:102CA0002080ED21318064212180032121801221A7
:102CB000218081212180E8213180852121801021FE
:102CC00021807A232380CB233380392323802C2334
:102CD0002380002323803423238002232380F723AF
:102CE000338020232380EA23338000232380238022
:102CF000C02333801B232380328001222280C522FF
:102D0000328020802080C7203080B720208036206D
:102D10003080482020803A20308055202080B1200B
:102D20003080002020801A202080B62030800A23A6
:102D30002380A2202080F2203080002020802620C6
:102D4000308001202080E02030800F2020802A2247
:102D5000228028252580082525804FF00E0CA4F818
:102D600000C0258054252580A92525804325258060
:102D70002380208000232380238023802380E1235D
:102D800033800023238015232380172323800723E8
:102D9000238011232380062525802B2525804FF0B5
:102DA000560CA4F800C04FF03C0CA4F800C04FF043
:102DB000050CA4F800C0218020803F2121802180C3
:102DC00020803580002020802080012020802180EC
:102DD00032800020208020802080EF2020803380DF
:102DE000782005F005FE29203080002000F01AF838
:102DF000002000907B883A880146FFF779FEC9F8E9
:102E000018800120F87107B0BDE8F0835C00002055
:102E10003038024000000240000C02400010024026
:102E2000FEFF016070B50023F02423494FF4A07524
:102E30001A46012803D078B103280DD000E00620FF
:102E400001268E710D804C8078B1032808D00528AA
:102E500008D0062808D008E08A710C804D80F3E77E
:102E6000C02302E0602300E0A02343F00804134BDA
:102E700036201880981C0480A4060C884D8802D542
:102E8000AC4202D303E0AC4201D90D804C802A242D
:102E90001C80028002800C88641E250A0580E4B232
:102EA00004802B241C80028002804988491E0A0A63
:102EB0000280C9B2018070BD5C000020FEFF01608D
:102EC00010B500222021142029F017FD0449002804
:102ED000886004D1BDE8104002A001F021BB10BD04
:102EE000840000204661696C656420746F20637201
:102EF00065617465205549206D6573736167652050
:102F000071756575650D0A00FFF7DAFF054826F053
:102F10004DF804480CF085FE21F0E2FA052022F07D
:102F2000A2FCF9E7003C0020154808B5016841F40F
:102F300080010160016801F480010091016841F4A1
:102F4000001101600068002200F4001000900521CB
:102F50000C20FEF753FA0C20FEF742FA002205215E
:102F60000E20FEF74BFA0E20FEF73AFA002205215A
:102F70004620FEF743FABDE808404620FEF730BA87
:102F80003038024030B5ADB00025239523A82495F4
:102F900022F075FC2D4CA061259525A8269522F0E0
:102FA0006EFCE0612795012127A8289522F06FFC8F
:102FB00020622995012129A82A9522F068FC24493C
:102FC00060620022D1E90001CDE92B0101212BA88B
:102FD00022F0B4FC1E4960611C2208316846FDF7EE
:102FE000CBF90021684622F07AFC194920601C22A6
:102FF000243107A8FDF7C0F9002107A822F06FFCD3
:10300000134960601C2240310EA8FDF7B5F900217C
:103010000EA822F064FC0E49A0601C225C3115A8A9
:10302000FDF7AAF9002115A822F059FC0849E06033
:103030001C2278311CA8FDF79FF900211CA822F062
:103040004EFC206128F038FE2DB030BD000000207D
:103050003CDA02082DE9F04186B014216846FDF7FC
:10306000B2F92F480024016841F080010160016835
:1030700001F080010591016841F0010101600168E2
:1030800001F001010591016841F00401016001684E
:1030900001F004010591016841F00201016000683E
:1030A000204E00F002000590002220213046FEF75D
:1030B00002F9DFF8748000220C214046FEF7FBF88D
:1030C000012502200095CDE90140184F6946384698
:1030D000FDF7F4FF10208DE8310069463846FDF712
:1030E000EDFF20200090CDE901546946304603945D
:1030F000FDF7E4FF04200090CDE901546946404605
:103100000394FDF7DBFF0820CDE90005CDE902546B
:1031100069464046FDF7D2FF06B0BDE8F0810000E9
:103120003038024000080240000402400000024023
:1031300010B586B014216846FDF745F91B480024F8
:1031400019490594C0E900147F218160FF21C0E97D
:10315000031444618461FEF72FFD08B1FDF7DFFD24
:103160008DF800408DF801408DF802400394002254
:1031700069460E480494FEF7D5FD08B1FDF7CFFD72
:1031800001208DF814008DF815008DF816008DF8CB
:103190001740002205A90548FEF778FD002801D058
:1031A000FDF7BDFD06B010BD00280040000A00205C
:1031B00010B586B00024174800940194029403943B
:1031C00004941349059401605321C0E9011440F2AD
:1031D000E731C0E9031480218161FEF769FE08B17F
:1031E000FDF79DFD4FF48050009069460948FEF7B9
:1031F000EBFE08B1FDF793FD049404A9054805947E
:10320000FEF70EFE002801D0FDF789FD06B010BDC7
:1032100000080040200A00200C4810B50A4901604F
:103220004FF4E1314160002181600C22C160C0E9AE
:1032300004128161C161FFF7B3F9002803D0BDE832
:103240001040FDF76CBD10BD00100140680A002061
:103250000C4810B50A4901604FF4E131416000218A
:1032600081600C22C160C0E904128161C161FFF775
:1032700097F9002803D0BDE81040FDF750BD10BD00
:1032800000480040B00A0020FEE7FEE7010901EB1C
:10329000810100F00F0000EB4100C0B27047002137
:1032A00002E00A38C0B2491C0A28FAD2090740EAEB
:1032B000116070472DE9F041044600680025C1689F
:1032C000490618D4C16841F08001C160FDF7F8FFDC
:1032D00006464FF47A78042707E000BFFDF7F0FFB9
:1032E000801B404501D9677701252068C0684006EA
:1032F00001D4002DF2D02846BDE8F08170B5044617
:1033000000680025C16821F08001C16020688068E4
:10331000800606D42046FEF765FD10B104206077D4
:103320000125284670BD012022F09DFAFBE7000030
:1033300010B5502080F31188BFF34F8FBFF36F8F0C
:103340002AF0C2F818B104494FF0805008600020FC
:1033500080F3118810BD000004ED00E030B593B09B
:1033600030216846FDF72FF814210CA8FDF72BF843
:103370001F480025016841F080510160006800F09D
:10338000805011901B48016841F480410160006841
:10339000022400F480401190092000904FF4803006
:1033A00001900120CDE905048005079019200890BF
:1033B0004FF4A870CDE9090404200B906846FEF78D
:1033C000F9F908B172B6FEE70CA90F2081E83100C7
:1033D0004FF4A0500F904FF48050109005210CA88E
:1033E000FEF7DCF8002801D072B6FEE713B030BD5E
:1033F00040380240007000400248016841F470010A
:103400000160704788ED00E00148FEF74CBE000007
:10341000200A00200148FEF746BE0000180C0020DC
:10342000F0B50268294C2A4D2A4E2B4F2B4B4FF0FA
:10343000804CA04209D0604507D0A84205D0B042D8
:1034400003D0B84201D0984204D122F0700E4A68ED
:1034500042EA0E02A0421BD0604519D0A84217D004
:10346000B04215D0B84213D0984211D01C4DA8429A
:103470000ED01C4DA8420BD01B4DA84208D01B4DAE
:10348000A84205D01A4DA84202D01A4DA84203D135
:1034900022F44075CA682A434D6922F080022A430B
:1034A00002608A68C2620A688262A04201D09842C1
:1034B00001D109690163012141610169C90703D093
:1034C000016921F001010161F0BD0000000001402F
:1034D0000004004000080040000C004000040140CF
:1034E00000400140004401400048014000180040F5
:1034F000001C00400020004010B5846842EA03220E
:1035000024F47F440A432243826010BD826822F083
:1035100070020A4342F007018160704710B5036AE8
:10352000046A24F001040462846924F0F00444EA8B
:10353000021423F00A020A438461026210BD10B52E
:10354000036A046A24F010040462846923F0A0036F
:1035500024F4704444EA023243EA011182610162B8
:1035600010BD000090B00CF013FA414D414C41F2F7
:10357000883741480FF042FE40480CF091F940A0D6
:1035800000F0CEFF0CF0A4F800286DD068683A4B2C
:1035900000900C334FF40072211D37480FF034FEB9
:1035A0000646211D37A000F0BBFF002E03DC3AA029
:1035B00000F0B6FF58E03049334600220C3105A830
:1035C000FFF757FA08AB39A205A9201DFFF7AEF99E
:1035D000002849D10BAB37A208A9201DFFF7A6F997
:1035E000F0BB102301AA0BA9201DFFF722FA01A8A6
:1035F000FCF733FF00F5E1400E900EA8FCF772FED9
:10360000A8601B49027D0C31643ACA70027C521CCE
:103610004A70027B8A702A49027A0A7002794A70DB
:103620000078887000222748FEF77CFB104928703C
:1036300000220C312348FEF729FB687029780143EA
:1036400012D1214840F2B631006822F097F91F48A4
:10365000002302221946006829F02AFE1C4800E0D7
:1036600002E0006822F065F9384622F0FCF880E7B5
:103670007400002060130020C8270020D4D306085F
:103680000D0A0000526563656976656420646174A3
:10369000613A2025730D0A006A736D6E5F70617266
:1036A0007365206661696C65640D0A0072657375E7
:1036B0006C74000074696D657374616D7000000056
:1036C000D43B0020000A0020140000200800002045
:1036D0000C0000200149002048817047380000207C
:1036E00000487047600F0020014840897047000083
:1036F000380000204FF47A71484370B5B0FBF1F305
:103700000C4D4FF400720A49686929F07BFC0400F3
:1037100009D00748C4F5007201190023686929F02F
:1037200071FC204400E00020688180B270BD000080
:10373000600F00203800002010B5806B0021C1858B
:10374000C184FEF7DBFD10BD70B5846B2068406955
:1037500094F84110C0F3C0100025212904D118B1FC
:10376000E584204600F0B4F82068406994F84210DF
:10377000C0F38010222904D118B1E585204600F05D
:1037800080F8606C40F0100060642046FEF7B6FDE3
:1037900070BD10B50146806B096809684FF00002E2
:1037A000C9052ED4C28501680C3151E8003F23F4CD
:1037B000807341E80034002CF5D10168143151E8E0
:1037C000003F23F0010341E80034002CF5D10168EB
:1037D000143151E8003F23F0400341E80034002C4D
:1037E000F5D1202180F84210016B012909D101682F
:1037F0000C3151E8003F23F0100341E80034002C65
:10380000F5D14263016B012902D0FEF7BDFF10BD67
:10381000818DFEF721FD10BD10B5806B0121416344
:10382000016B012902D0FEF7B0FF10BD818D490860
:10383000FEF712FD10BD10B50146806B09680968DE
:10384000C90516D40021C1840168143151E8002F44
:1038500022F0800241E80023002BF5D101680C31F1
:1038600051E8002F42F0400241E80023002BF5D13F
:1038700010BDFEF7C7FF10BD10B5806BFFF706F84F
:1038800010BD01680C3151E8002F22F4907241E81C
:103890000023002BF5D10168143151E8002F22F0EC
:1038A000010241E80023002BF5D1016B012909D168
:1038B00001680C3151E8002F22F0100241E800238A
:1038C000002BF5D1202180F84210002101637047C0
:1038D00001680C3151E8002F22F0C00241E80023BA
:1038E000002BF5D1202180F84110704708B590F8E1
:1038F0004210222901D0022008BD82684FF4805373
:103900009A4201D1016921B1816A9A421BD04AB120
:103910000AE00268816A5268C2F308020A80816A7A
:10392000891C08E0026972B10268526802F07F02E5
:103930000A70816A491C8162C18D491E0904090C03
:10394000C18503D01BE002685268F1E70168CA68CC
:1039500022F02002CA600168CA6822F48072CA603C
:1039600001684A6922F001024A61202180F8421070
:1039700000214163026B012A03D0FEF705FF0020FE
:1039800008BD016301680C3151E8002F22F01002DC
:1039900041E80023002BF5D101680A68D20602D560
:1039A0000A6849680091818DFEF756FCE7E7000040
:1039B00070B5044600680169E26821F44051114382
:1039C00001612169A068E269084361691143084304
:1039D0002168CA6849F20C639A430243CA602068AE
:1039E0004169A26921F44071114341613149206864
:1039F000884202D03049884202D1FDF799FE01E0A9
:103A0000FDF786FEE2690023192164253226B2F50E
:103A1000004F626828D0A0FB0101930F9200FCF7D1
:103A20002FFC0146B0FBF5F06FF01802504301EB9C
:103A3000800006EB0010B0FBF5F000F0F002B1FBE7
:103A4000F5F002EB0012B1FBF5F06FF018035843EC
:103A500001EB800006EB0010B0FBF5F000F00F006A
:103A600021681044886070BDA0FB010192185B4181
:103A7000FCF706FC0146B0FBF5F00201B1FBF5F0E6
:103A80006FF01803584301EB800006EBC000B0FB59
:103A9000F5F000F0F80002EB4002B1FBF5F05843FE
:103AA00001EB800006EBC000B0FBF5F000F0070072
:103AB000D6E70000001001400014014038B58162D3
:103AC00004468285002013466064222284F8422046
:103AD000E56B1B4AEA63E56B1A4A2A64E56B1A4AEE
:103AE000EA64E26B10650A462168E06B091DFDF788
:103AF000ADFA2068016840680090206948B12068EC
:103B00000C3050E8001F41F4807140E80012002A98
:103B1000F5D12068143050E8001F41F0010140E861
:103B20000012002AF5D12068143050E8001F41F03F
:103B3000400140E80012002AF5D1002038BD000005
:103B400093370008193800084937000870B50C4D44
:103B50000A46044601460023A86828F067FF0128AA
:103B60000DD02868401C2860002C08D0207803283D
:103B700005D2044951F82020521C41F8202070BD84
:103B800084000020E83B002070B50C4D0446002363
:103B900001461A46A86828F049FF01280DD0686838
:103BA000401C6860002C08D02078032805D2044906
:103BB00051F82020521C41F8202070BD84000020C4
:103BC000F43B00200148FEF7B3BB0000680A002068
:103BD0000148FEF7ADBB0000B00A00202DE9F34F0D
:103BE00081B00D000CD02F4E4FF0FF3B594630688E
:103BF00029F016F90024DFF8B090DFF8B0A045E016
:103C00000020BDE8FE8F00BF00F064F8A8B1291BBA
:103C1000814200DC084687B2BAF80400C0F5807023
:103C20001FFA80F80198474500EB040117D8BAF84D
:103C3000042009EB02003A461EE000F053F800238E
:103C40001A461946306828F0F1FE19480A21006822
:103C500029F0E6F85946306829F0E2F816E00091BC
:103C6000BAF8042009EB02004246FCF785FB0099F4
:103C7000A7EB080241440C48FCF77EFBBAF804109D
:103C80003944C9B2AAF80410E01984B2AC42BBD3DB
:103C900000F028F800231A461946306828F0C6FEBE
:103CA0002846AEE718000020600C002038000020F5
:103CB00020000020064881884088081A00F580709E
:103CC000C11700EB116121F0FF01401A80B270476B
:103CD0003800002000B5FFF7EDFFC0F1FF0080B213
:103CE00000BD000070B54FF00005EFF3058068B12E
:103CF00001265020EFF3118580F31188BFF34F8F19
:103D0000BFF36F8F154C207898B903E0002628F098
:103D100065F9F7E7FFF7CEFF58B101202070FFF7F4
:103D2000C9FF6188C1F5807189B2884205D8E080F9
:103D300004E07EB185F3118870BDE1800848618898
:103D4000E28801440748FEF721FD0028F1D0002059
:103D50002070EEE7BDE8704028F060B93800002020
:103D6000600C0020680A00202DE9F34F81B00D009F
:103D70000CD0304E4FF0FF3B5946306829F050F8D8
:103D80000024DFF8B490DFF8B4A046E00020BDE8DE
:103D9000FE8F00BF00F066F8A8B1291B814200DC4D
:103DA000084687B2BAF80E00C0F500701FFA80F816
:103DB0000198474500EB040117D8BAF80E2009EB2B
:103DC00002003A461EE000F055F800231A46194654
:103DD000306828F02BFE1A480A21006829F020F8E4
:103DE0005946306829F01CF817E00091BAF80E2007
:103DF00009EB02004246FCF7BFFA0099A7EB080264
:103E000041440D48FCF7B8FABAF80E103944C1F332
:103E10000801AAF80E10E01984B2AC42BAD300F03F
:103E200029F800231A461946306828F0FFFD284675
:103E3000ADE700001C0000206011002038000020C9
:103E4000240000200648C1898089081A00F5007006
:103E5000C11700EBD1516FF30801401A80B27047CF
:103E60003800002000B5FFF7EDFFA0F2FF10404240
:103E700080B200BD70B54FF00005EFF3058068B16A
:103E800001265020EFF3118580F31188BFF34F8F87
:103E9000BFF36F8F154C607898B903E0002628F0C7
:103EA0009DF8F7E7FFF7CEFF58B101206070FFF7EC
:103EB000C9FFA189C1F5007189B2884205D8208265
:103EC00004E07EB185F3118870BD21820848A18984
:103ED000228A01440748FEF759FC0028F1D000204F
:103EE0006070EEE7BDE8704028F098B83800002018
:103EF00060110020B00A0020FEE700002DE9F0412B
:103F0000384886B0016841F004010160016841F061
:103F10000101016033481430016841F480510160AF
:103F200014216846FCF74FFA01244FF4005503268C
:103F3000CDE90054CDE9024669462B48FDF7BEF8AD
:103F4000294818300560E020009001A9022081E88E
:103F500051000520049069462448FDF7AFF8244835
:103F60000460016841F002010160016841F0040150
:103F700001600168016001680160016841F400713D
:103F80000160016841F480710160016801600168AD
:103F900041F04001016022F011FC164E3078F8B17A
:103FA0000025154FDFF854808DF814502C4601225F
:103FB00005A904F5200000F023F89DF814003C4406
:103FC0002844C5B24445F2D3922D07D0002070702A
:103FD000307828B1012006B0BDE8F0810120F6E775
:103FE0000020F8E73038024000080240000002409C
:103FF000003001406417002040420F0000845D0043
:104000002DE9F0410446134815460F460078002874
:104010001DD0114E4FF000503060032023F056FEAB
:10402000C4F3074023F052FEC4F3072023F04EFEF2
:10403000E0B223F04BFE002404E0FF2023F046FE14
:104040003855641CAC42F8D34FF400503060BDE8E2
:10405000F081000064170020180802402DE9F05F8D
:104060008A46334915460A78002A5ED04219B2F5CD
:10407000200F02D94A78012A36D0C0F30B07DFF8A7
:10408000B0B0C7F580544FEA10390BF1180BA542B8
:1040900000D82C464FF480584FEA09300646424675
:1040A0005946FFF7ADFF22480078D8B128F008FB49
:1040B00000F05CF81F484FF000510160202023F011
:1040C00005FEC6F3074023F001FEC6F3072023F0E8
:1040D000FDFD002023F0FAFD16484FF40051016069
:1040E00000F044F800200CE0BDE8F05F12A000F002
:1040F00017BA00BF1AF800303A18401C0BF802300B
:1041000080B2A042F6D330464246594628F0E6FA3D
:10411000AC420AD0281BA244002785B2444609F1CC
:104120000109A542B8D82C46B6E7BDE8F09F0000CB
:104130006417002018080240D2AAD0B4C8EBB5C456
:10414000CAFDBEDDD4DAD7D6BFE2CAFDBEDDB4E615
:10415000B4A2C7F8C4DAA3ACD2D1CCF8B9FDB1BED1
:10416000B4CEB2D9D7F721210D00000010B5084C0C
:104170004FF000502060052023F0A8FDFF2023F021
:10418000A5FDC007FAD14FF40050206010BD00001B
:104190001808024070B5A2B04FF0FF31012027F09F
:1041A000CBFD10B140A000F0BBF90BF03BFC0120AF
:1041B000494C8DF8040049480BF072FB48A000F010
:1041C000AFF948480FF01AF80BF082FA002865D0D2
:1041D0004548444B4FF40072406800900C33211D59
:1041E00040480FF011F8031E04DC40A000F098F9DD
:1041F00022B070BD3B4900220C310CA8FEF739FCFF
:1042000009AB3FA20CA9201DFEF790FB09A8FEF701
:1042100072FB0646002538E00FAA294609A8FEF7DA
:1042200037FB15AB38A20FA9201DFEF77FFB18AB9B
:1042300038A215A9201DFEF779FB08230DF106020F
:1042400018A9201DFEF7F5FB12AB34A20FA9201D03
:10425000FEF76CFB1BAB32A212A9201DFEF766FB1A
:1042600008230DF10E021BA9201DFEF7E2FB1EAB79
:104270002DA212A9201DFEF759FB08230DF11602ED
:104280001EA9201DFEF7D5FB6D1CB542C4DB29F02D
:1042900015F908900A2101A8FFF758FC42F21070A6
:1042A00021F0E1FA87E7000052656365697665648D
:1042B000206E6F74696669636174696F6E20746FD4
:1042C000207374617274205765617468657220741C
:1042D00061736B0D0A0000006013002048D40608CB
:1042E0000D0A0000C8270020740000206A736D6E5C
:1042F0005F7061727365206661696C65640D0A00A8
:10430000726573756C7473006C6F636174696F6E42
:10431000000000006E616D65000000006E6F7700A8
:10432000746578740000000074656D706572617466
:1043300075726500024900B10120087070470000E5
:10434000A42700200148408870470000A4270020CF
:104350000148808870470000A4270020F0B58BB08A
:104360000D460646174614216846FCF72CF8444CC7
:104370004248206266814348A5812777016841F061
:104380001F010160012503204FF40057CDE90250C1
:10439000CDE9007569463C48FCF790FE3A4E183668
:1043A00037600095394D69462846FCF787FE0420A2
:1043B000009069462846FCF781FE08200027CDE9D9
:1043C000000769462846FCF779FE1020CDE9000772
:1043D00069462846FCF772FE4FF48030A8618000E1
:1043E000A861C0023060142105A8FBF7ECFF217F13
:1043F000002011B1012902D003E0206A01E0206A07
:104400001430142205A9FFF7FBFD9DF814004F2876
:1044100003D19DF815004B2818D0207F28B3DFED7D
:104420001C0A9FED1C0A6FF02C014FF4A97000BF0D
:1044300028F012F942F2107004F0CFFA174916482A
:1044400008600120FFF776FF0BB0F0BD0C48DDF8E7
:10445000161028388163BDF81A102183DDF81E106C
:10446000C163BDF822006083EBE76FF01201481CC6
:10447000DFED0B0A9FED0B0ADAE700009CFF9F00BF
:10448000A427002030380240000C024000100240F7
:1044900065A79F3D9C16BC3D0400FA050CED00E0AD
:1044A000355EBA3D713D8A3D2DE9F041194C2078C9
:1044B000002825D018480069184F40F30010401C10
:1044C0007870012824D122F0F3F802F009FB668805
:1044D000A58822F0EDF802F003FB6088A1888642EF
:1044E00001D9321A00E0821BD3B28D4201D96A1A77
:1044F00000E04A1BD2B2032B01D8032A02D90020C4
:10450000BDE8F08130444008608068184008A08011
:104510007878F5E7A427002000100240640000200E
:104520000FB4054B10B503A9044A029801F006FD2B
:1045300010BC5DF814FB0000CF0C010850030020F4
:104540000FB4084B10B504A902AA039801F0F6FCB9
:10455000044602A9002002F093F8204610BC5DF842
:1045600014FB0000816600087CB5044600201D464F
:10457000164600290BD0491ECDE90041044B6A467E
:104580002946304601F0DAFC009A002111707CBD0A
:104590006B6600080907090E002804DB00F1E02023
:1045A00080F80014704700F00F0000F1E02080F860
:1045B000141D7047004870475403002002E008C8EB
:1045C000121F08C1002AFAD170477047002001E08D
:1045D00001C1121F002AFBD1704770B504460025A7
:1045E0006FF02F0608E02068411C2160007805EB81
:1045F000850106EB410145182068007800F0C6F8F7
:104600000028F0D1284670BD2DE9FF5F82B000215F
:10461000DDE90430020DDDF840B0034318D044F664
:104620001050A2F2FF3242431514119801281FD0F6
:10463000A5EB0B00401C5FEA000A4FF000064E4F4E
:10464000DFF83891B046504615D5CAF1000413E0A2
:10465000119801244AA3012801D16FEA0B010298A5
:10466000119AC0E90031C0E9024206B0BDE8F09FEE
:10467000CBF10000DFE704460021404A491842EB35
:104680000450CDE9001012E0E00707D032463B4667
:1046900040464946FCF702F88046894632463B468A
:1046A00010461946FBF7FAFF06460F466410002C29
:1046B000EAD1DDE90401DDE90023BAF1000F06DAF1
:1046C000FBF7ECFF42464B46FBF7E8FF05E0FCF743
:1046D00057F842464B46FCF753F804460E46002274
:1046E000284BFCF7D5F803D84FF0FF30014607E020
:1046F0000022254B20463146FBF729FFFCF7AFF897
:10470000102409E0002C0ADB0A220023FBF7B8FD85
:10471000039B30321A55641E50EA0102F2D1641C28
:10472000039AC4F111031444119A012A03D00122FF
:1047300008430DD10AE0084304D000204FF0110BCC
:10474000119072E7A3EB0B056D1E0DE05B4504DDD8
:104750004FF0000205F1010504E003DA4FF000021A
:10476000A5F10105002AECD002981199C0E90231A7
:10477000C0E9004579E70000000014400000F03F68
:10478000300000000000F0430000E03F303809280E
:1047900001D80120704700207047000010B5442167
:1047A000074800F08DFE00221E2106481FF066FE1D
:1047B000054CA06002F046FB0020207010BD0000F8
:1047C000A8570020F96E00083C0200202DE9F047B0
:1047D0000E46814617461146304600F01CF94FF050
:1047E000FF3A00287DD000223946304600F0BFF85D
:1047F00000284FF0000075D1B6F90480B6F90030FA
:104800005246A8EB0301491C0AFA81F10FFA81FA1A
:10481000B6F906C0B6F90210ACEB010C0CF1010CB4
:1048200002FA8CF2B7F802C012B2ACEB010C0FFA2C
:104830008CFCBCF1000F0EDD63F30F0468F30F0571
:1048400001EB0C0061F31F4460F31F45C9F8004001
:104850000120C9F80450B7F906107388CB1AD21A90
:1048600012B2002A13DDB6F9063099420FDA338806
:1048700063F30F04B38861F31F4463F30F0511441E
:1048800061F31F4509EBC001401C0C604D60B7F996
:104890000220B6F902108A4200DD1146B7F906304F
:1048A000B6F90620934200DA1A463B88B6F900C0F2
:1048B000521AA3EB0C031BB212B2002B10DD002A1C
:1048C0000EDD634463F30F058B1863F31F456CF330
:1048D0000F0409EBC00361F31F441C605D60401CC2
:1048E00001E01AE017E0B7F9043036889F1BAAEB05
:1048F000070636B2002E0EDD63F30F0461F31F448A
:10490000334463F30F05114461F31F4509EBC00104
:10491000401C0C604D60BDE8F0875046FBE770B569
:10492000B1F90030B2F90040A34200DC2346038015
:10493000B1F90250B2F90240A54200DD2C46448094
:10494000B1F90460B2F90450AE4200DA3546858010
:10495000B1F90610B2F90620914200DB1146C18080
:104960000120AB4201DC8C4200DD002070BDF8B5B7
:104970000D460446B0F90000B1F900101646884211
:1049800047DBB4F90210B5F90220914241DBB4F9DA
:104990000410B5F9042091423BDCB4F90610B5F9D6
:1049A0000620914235DC96B3ADF800006088ADF882
:1049B000020032466946284600F099F8002827D0C0
:1049C000A088ADF800006088ADF802003246694664
:1049D000284600F08CF800281AD02088ADF8000096
:1049E000E088ADF8020032466946284600F07FF8BC
:1049F00000280DD0A088ADF80000E088ADF80200D6
:104A000032466946284600F072F8002800D001209E
:104A1000F8BD0020F8BDB0F90020B1F904309A4289
:104A200013DCB0F90420B1F900309A420DDBB0F983
:104A30000220B1F906309A4207DCB0F90600B1F95C
:104A40000210884201DB0120704700207047F8B552
:104A50000D460446B0F90400B1F90010164688422C
:104A600043DBB4F90600B5F9021088423DDBB4F926
:104A70000000B5F90410884237DCB4F90210B5F92A
:104A80000620914231DC76B3ADF800006088ADF8C5
:104A9000020032466946284600F029F818BBA08873
:104AA000ADF800006088ADF802003246694628463D
:104AB00000F01DF8B8B92088ADF80000E088ADF826
:104AC000020032466946284600F011F858B9A0881D
:104AD000ADF80000E088ADF802003246694628468D
:104AE00000F005F808B10020F8BD0120F8BD2DE95F
:104AF000FC4114460E46B1F90020B0F900100546FD
:104B00008A423ADBB5F90400824236DCB6F902701B
:104B1000B5F90220974230DBB5F906309F422CDC14
:104B2000002C75DD401A9A1A401C521C00B212B2B9
:104B300000EBD07002EBD27240105210904200DBBA
:104B40001046844200DD0446ADF80010288800229B
:104B50002044ADF804006888ADF80200688831464A
:104B60002044ADF806006846FFF7C1FF40B1BDF82C
:104B700004002044ADF804003FE00020BDE8FC81C3
:104B8000E8880022001BADF80200E888ADF80600B6
:104B900031466846FFF7ABFF28B1BDF8040020445A
:104BA000ADF8040011E0A8880022001BADF8000059
:104BB000A888ADF8040031466846FFF798FF50B169
:104BC000BDF80000001BADF80000BDF80200001B9E
:104BD000ADF8020016E06888ADF80200688800228F
:104BE0002044ADF8060031466846FFF780FF70B1FB
:104BF000BDF80000001BADF80000BDF80600204421
:104C0000ADF80600314668461CF0A0FFB6E7FFE7A6
:104C10000120B3E710B5B1F90040B2F900309C4271
:104C200000DA23460380B1F90240B2F902309C4217
:104C300000DA23464380B1F90440B2F904309C42C3
:104C400000DD23468380B1F90610B2F906209142B7
:104C500000DC1146C18010BDF8B507461FF08AFB85
:104C60000025374C0646009537B1F8686060384635
:104C70001FF0D2FC606802E011F0C6FF60600069BE
:104C80001CF060FE6068406908B11CF05BFE606863
:104C9000C0691CF057FE6068006A1CF053FE606833
:104CA000016991B11CF0FAFF22F072FB22F098F832
:104CB0006068B0F85011D9B30068017CC9071DD0F5
:104CC000C0684068D0B1002713E0A0F85051F8BD8B
:104CD000C11991F8301151B900F5AC7000F047FCE2
:104CE000616801EBC7010A6B0260496B41607F1C80
:104CF000BFB26068B0F85011B942E9D860684FF4AB
:104D00008071303018F000FA6068202100F598704A
:104D100018F0FAF96068A0F8505130461FF024FBF3
:104D2000009060680068436A13B122680099984750
:104D300018F068F800F032F8BDE8F84000F002B86A
:104D4000FC00002070B50A4D002400BFC4EBC4066F
:104D500055F8260008B118F0C9F805EB86001C21AB
:104D600018F0D2F9641CE4B2042CEFD370BD00003B
:104D700084580020084949680AE04A68824202D003
:104D80000A68824203D10A7E42F001020A7649692A
:104D90000029F2D170470000D000002070470000C9
:104DA0000421014800F08CBB9C57002020210148C1
:104DB00000F086BBB45700202DE9FF410446DDE931
:104DC0000A671D004FF0000002D1B6F5807F2BD09E
:104DD000039001900290ADF80C100090ADF8041013
:104DE000ADF80A20ADF80E203B463246294668460B
:104DF0001CF00CFE3B463246294601A81CF006FE7C
:104E00003B463246294602A81CF000FE3B4632468D
:104E1000294603A81CF0FAFDBDF90000BDF90430D5
:104E2000984209DA054608E02080491E6080A1808A
:104E3000521EE280BDE8FF811D46BDF90820BDF984
:104E40000C108A4201DA164600E00E46B54203DA3B
:104E5000984206DB184604E08A4201DA104600E078
:104E60000846801E2080BDF90030BDF90420934221
:104E700001DD1D4600E01546BDF90800BDF90C1026
:104E8000884201DD064600E00E46B54205DD93424C
:104E900001DD194604E0114602E0884200DD0146CA
:104EA000891CA180BDF90230BDF90620934201DAC8
:104EB0001D4600E01546BDF90A00BDF90E108842F6
:104EC00001DA064600E00E46B54205DA934201DA01
:104ED000194604E0114602E0884200DA0146891EC4
:104EE0006180BDF90230BDF90620934201DD1D4607
:104EF00000E01546BDF90A00BDF90E10884201DD3B
:104F0000064600E00E46B54205DD934201DD194636
:104F100004E0114602E0884200DD0146891CE18080
:104F200088E700002DE9F04115460E460746114C72
:104F30001FF020FA80462B4632463946204616F0AE
:104F400053F820B10020A062E06950B110E02C219C
:104F5000204618F0D9F84FF00040A0620020BDE8CC
:104F6000F08140461FF000FAE06108B90120E061DD
:104F70002046F4E7D857002010B51421074800F068
:104F80009FFA15F0F7FF40B10549016005494160FE
:104F9000054981600549C16010BDFEE7C05700208A
:104FA00049A90108C5AC010895AE010815A9010879
:104FB00070B50D4604461021284618F0A5F8206863
:104FC0000078012804D0022807D0042807D008E080
:104FD000A08A2880E08A688003E0E06800E00A2078
:104FE000686020684268002A03D02946BDE8704006
:104FF000104770BD2DE9FE430446808A10B9E08A4F
:10500000002874D0D4F82C805FEA080010D1204624
:105010000BF03FF95FEA000869D020460DF0DEFC96
:1050200000220921404614F0D9FE607880075ED442
:105030004FF4807900274E464546002128461AF055
:10504000E7FC384407B2002128461AF0FFFCC117DC
:1050500000EB1160001210FB06F006B2284619F0B2
:10506000D3FC0500E9D10FB94E450CD0784201B20E
:105070004FF4803090FBF6F002B26B4604F114005E
:1050800000951CF0C3FCADF80450ADF8085094F83E
:10509000400000F00F000328404616D019F006FE2D
:1050A0000646404619F0BCFC03460C200090B4F9BB
:1050B0001610324640460AF0DFF9ADF808004046C7
:1050C00019F000FDC10713D018E019F083FD064662
:1050D000404619F01FFD024603200090B4F9141059
:1050E000334640460AF0C8F9ADF80400E7E736E079
:1050F000BDF90410002901DDADF80450810705D485
:10510000BDF90410002901DAADF80450410705D4B7
:10511000BDF90810002901DDADF80850000705D4DD
:10512000BDF90800002801DAADF8085002AA01A96B
:10513000204622F0C9FCBDF90820BDF90410404604
:1051400000F08AFA6078800709D4208BBDF804103B
:1051500008442083608BBDF8081008446083BDE8D4
:10516000FE832DE9FC5F0446C06A5FEA000B71D044
:1051700094F8400000076DD016F0C8F9019000685F
:105180004021457E58461AF08DFD4FF0000818B9B1
:10519000A4F81E80A4F81C80584619F079FD8246B8
:1051A000584619F07CFD064694F840004FF064091B
:1051B00000F00F000C2802D003284CD09AE0A4F88D
:1051C0001C8056B1B4F91E50002716F09FF90068F4
:1051D0004946407EC0F1640022E0E08BC5F16401E5
:1051E00010FB01F191FBF9F0E083584619F018FC2F
:1051F0000546584619F05AFD02460C200090B4F9B5
:105200001E102B4658460AF037F9E0830246002369
:105210001EE07A1917B210FB05F292FBF1F215B2FB
:10522000002DF6D1ADF80070A4F81E806A4600216A
:10523000204622F049FC41F6FF72BDF90030514290
:1052400058460BF0BDF9BDF800100123084402B226
:1052500000214CE09AE0A4F81E80BAF1000F0AD0B9
:10526000B4F91C50002716F051F900684946407EF9
:10527000C0F1640022E0A08BC5F1640110FB01F1D4
:1052800091FBF9F0A083584619F044FC05465846B6
:1052900019F0A0FC034603200090B4F91C102A4624
:1052A00058460AF0E9F8A083014600231EE07A1967
:1052B00017B210FB05F292FBF1F215B2002DF6D1F8
:1052C000ADF80070A4F81C8000226946204622F048
:1052D000FBFB41F6FF72BDF90030514258460BF01E
:1052E000E7F8BDF800100123084401B20022584637
:1052F0001BF014FEA08B002848D1E08B002845D17C
:10530000C6B9584619F0D2FC0546584619F088FB34
:10531000002D06DC00280DDD002D02DA01232A46CF
:1053200004E0002806DA0123404202B20021584678
:105330001BF0F4FDBAF1000F19D1584619F0EAFB41
:105340000546584619F046FC002D07DC00280EDD06
:10535000002D03DA01230022294605E0002806DAA1
:1053600001230022404201B258461BF0D7FD0A211A
:105370005846019A14F032FD6078800706D414F87C
:10538000400F20F00F00207044F8148CBDE8FC9F03
:105390007FB50E46040003D111F036FC04002CD07A
:1053A00011F0A6FC002828D094F82800400724D447
:1053B000002506B3ADF80050ADF80250204611F0BC
:1053C0003BFC401EADF80400204611F07BFC401E63
:1053D000ADF806006A46314602A8FFF7A0FA002899
:1053E0000BD02068017C890708D5DDE90001C4E9FC
:1053F0000C01012029E0A4F850517FBD82690AB157
:1054000002A9904700260AE004EBC601002202A888
:105410003031FFF7ACFA0028EFD1761CB6B2B4F801
:105420005001B042F0D880B2202804D204EBC00072
:1054300002A9303004E0A4F8505104F1300069466C
:105440000FF06BF9B4F85001401CA4F850016068EB
:105450000028D2D01FF0ECF87FBD70B5054600F0F3
:1054600012F804460CE02146284600F01EF80646D5
:105470002146284600F0A2F8204617F037FD3446B2
:10548000002CF0D170BD002800D04068704700B5F6
:1054900003460022FFF7F7FF03E01846521C00F016
:1054A00004F80100F9D1104600BD0068091D4058FC
:1054B0007047006840587047002800D080687047E7
:1054C00000224260C91C21F0030182600160704724
:1054D00070B504460068083017F07CFC050013D056
:1054E00001460022204620F021F929462046626824
:1054F00020F016F9616819B12A46204620F016F905
:105500006560A06800B9A560284670BD2DE9F0412E
:105510000C4606000AD04CB1FFF7B5FFA04208D1F7
:105520003046FFF7D5FF051E01D01EE00020BDE884
:10553000F0813068083017F04DFC051EF7D0306858
:105540002A4607593046394620F0EAF83A462946B5
:10555000304620F0EBF82A462146304620F0E6F8A7
:1055600022462946304620F0DBF82846DFE770B5B2
:1055700004460068083017F02DFC050013D00146E2
:105580000022204620F0CCF829462046A26820F0D0
:10559000CDF8A16819B12A46204620F0C1F8A560CF
:1055A000606800B96560284670BD28B1416809B9D6
:1055B000806808B1002070470120704770B5040072
:1055C0000DD0FFF760FF00228842204608D1FFF788
:1055D0006CFF6060011E01D000221EE0A26070BD61
:1055E000FFF76AFF8842206808440AD10168A16079
:1055F00029B12046BDE87040002220F091B86260D9
:1056000070BD05682046FFF750FF06460246294652
:10561000204620F085F82A4631462046BDE87040F5
:1056200020F084B810B50446006882680AB12146AB
:10563000904720680068002801D02060F5E710BD81
:105640008068002801D0B0F91600704780680028F3
:1056500001D0807E8009704770B5164605460C461D
:1056600051EA06001AD0284618F0BCFAA8680123AF
:105670003246018A21440182A868418A314441822C
:10568000214628461AF0A2FE00220B21284614F0DB
:10569000A5FB012803D128461AF0F2FD012070BDB8
:1056A00077B581B00E46050017D062221AF0DEF8F9
:1056B000040012D0206880B12846314663221AF0D7
:1056C000D5F810F0FF0208D02368204603999847C8
:1056D0000090BDF80000ADF80C00039804B070BD58
:1056E0002DE9F047074692B0408C1A9E40F0080022
:1056F000788490463A8499468A46328938461AF028
:10570000B5F80546A7F820903289514638461AF078
:10571000ADF80446788CA54220F00800788403D1C7
:105720002904B1EB044F68D0A7F820803289514694
:1057300038461AF09BF805468046A7F82090514657
:1057400038460CF097F9318900682A461DF052FD61
:1057500030890B2823D147F6FF794D4501D04C45C0
:105760001DD138461AF055FA00EBD0704510384676
:1057700019F009F900EBD0704010C84506D1691C3A
:10578000431C994200DA00E0194688464C4506D190
:10579000691C421C914201DA6C1C00E01446194855
:1057A000FFF796FE05002BD02F60C5E903843089F2
:1057B000A8806846C5F808A00EF022FA1248FF211A
:1057C000CDE9005011480290114803900020089044
:1057D000CDE9090130880B9070889DF84210404255
:1057E0000C90F0680790002060F300018DF84210E3
:1057F0003069069068460EF077FA12B0BDE8F0877F
:10580000FEE70000CC57002061B802084DBA02083C
:10581000A9B9020814210148FFF752BECC57002055
:105820002DE9F84F00259046894606462C46042768
:10583000E5E000BFF16807EBC400085882017AD4A4
:1058400080B230EA090211D05FF0000230EA0800AD
:105850000ED0002082426ED051F834A06A4610214A
:1058600050461DF029FA002871D103E00122EDE72E
:105870000120EFE76A46112150461DF01DFA00286D
:1058800065D16A46122150461DF016FA00285ED1F5
:105890006A46132150461DF00FFA002857D16A4678
:1058A000152150461DF008FA002850D16A461421EF
:1058B00050461DF001FAE8BB6A460A2150461DF029
:1058C000FBF9B8BB6A466B2150461DF0F5F988BB61
:1058D0006A466C2150461DF0EFF958BB6A4601211B
:1058E00050461DF0E9F928BB6A46042150461DF0D8
:1058F000E3F9F8B96A46022150461DF0DDF9C8B94E
:105900006A46032150461DF0D7F998B96A46052129
:1059100050461DF0D1F968B96A46062150461DF07F
:10592000CBF938B96A46322150461DF0C5F908B99D
:105930006A4601E00BE061E06E2150461DF0BCF9C3
:1059400028B96A466D2150461DF0B6F910B1032002
:10595000BDE8F88F6A46692150461DF0ADF9E8BBF5
:105960006A466A2150461DF0A7F9B8BB6A466E2107
:1059700050461DF0A1F988BB6A466D2150461DF0C6
:105980009BF958BB6A46372150461DF095F928BB54
:105990006A46382150461DF08FF9F8B96A4635211C
:1059A00050461DF089F9C8B96A46402150461DF09D
:1059B00083F998B96A46452150461DF07DF968B9CA
:1059C0006A46412150461DF077F938B96A464221AE
:1059D00050461DF071F908B96A4600E00AE043211B
:1059E00050461DF069F928B96A46492150461DF014
:1059F00063F908B1022501E005B90125641C708C2A
:105A0000C0F30510A0423FF615AF2846A0E70000FE
:105A10000148406870470000FC0000207047C0F358
:105A20000410072800D9072070470000A0F57F4127
:105A3000FF3905D0002804D0712803D208490AE0B4
:105A40001F2070470749713880B2096829B1064A9A
:105A50005268904201D2085C7047002070470000F5
:105A6000E0D00608680200207C02002010B5182152
:105A70000348FFF725FD03490120087010BD000011
:105A800078570020840200202DE9F04190460C4612
:105A9000050015D0FAF7B4FC0A4F06462146BA684D
:105AA000284690470446BA6828194146904701465F
:105AB000701A03E06218AA5C2A55641CA042F9D24D
:105AC000BDE8F081980200202DE9F041094D904693
:105AD0000E466A681C46074619469047306020B15A
